instruction                               Func  RegAddrA RegAddrB DestReg RS1v RS2v RDv Left        Right       Extra        RegDataA    RegDataB    PC           Stall
00000000000000000111000010110111     LUI-- 00000    00000    00001   0    0    1   00000000 00000000 00007000  000000AA 000000BB 00001111  0 
00000000000000000111000010010111     AUIPC 00000    00000    00001   0    0    1   00000000 00000000 00008111  000000AA 000000BB 00001111  0
00000000000000000111000011101111     JAL-- 00000    00000    00001   0    0    1   00007000 00001111 00001115  000000AA 000000BB 00001111  0
00000000011100001000000101100111     JALR- 00001    00000    00010   1    0    1   00000007 000000AA 00001115  000000AA 000000BB 00001111  0
00000000001000001000001111100011     BEQ-- 00001    00010    00000   1    1    0   000000BB 000000AA 00001917  000000AA 000000BB 00001111  0
00000000001000001001001111100011     BNE-- 00001    00010    00000   1    1    0   000000BB 000000AA 00001917  000000AA 000000BB 00001111  0
00000000001000001100001111100011     BLT-- 00001    00010    00000   1    1    0   000000BB 000000AA 00001917  000000AA 000000BB 00001111  0
00000000001000001101001111100011     BGE-- 00001    00010    00000   1    1    0   000000BB 000000AA 00001917  000000AA 000000BB 00001111  0
00000000001000001110001111100011     BLTU- 00001    00010    00000   1    1    0   000000BB 000000AA 00001917  000000AA 000000BB 00001111  0
00000000001000001111001111100011     BGEU- 00001    00010    00000   1    1    0   000000BB 000000AA 00001917  000000AA 000000BB 00001111  0
00000001100000001000000100000011     LB--- 00001    00000    00010   1    0    1   00000018 000000AA 00000000  000000AA 000000BB 00001111  0
00000001100000001001000100000011     LH--- 00001    00000    00010   1    0    1   00000018 000000AA 00000000  000000AA 000000BB 00001111  0
00000001100000001010000100000011     LW--- 00001    00000    00010   1    0    1   00000018 000000AA 00000000  000000AA 000000BB 00001111  0
00000001100000001100000100000011     LBU-- 00001    00000    00010   1    0    1   00000018 000000AA 00000000  000000AA 000000BB 00001111  0
00000001100000001101000100000011     LHU-- 00001    00000    00010   1    0    1   00000018 000000AA 00000000  000000AA 000000BB 00001111  0
11111110001000001000111110100011     SB--- 00001    00010    00000   1    1    0   FFFFFFFF 000000AA 000000BB  000000AA 000000BB 00001111  0
11111110001000001001111110100011     SH--- 00001    00010    00000   1    1    0   FFFFFFFF 000000AA 000000BB  000000AA 000000BB 00001111  0
11111110001000001010111110100011     SW--- 00001    00010    00000   1    1    0   FFFFFFFF 000000AA 000000BB  000000AA 000000BB 00001111  0
00000001111100001000000100010011     ADDI- 00001    00000    00010   1    0    1   0000001F 000000AA 00000000  000000AA 000000BB 00001111  0
00000001111100001010000100010011     SLTI- 00001    00000    00010   1    0    1   0000001F 000000AA 00000000  000000AA 000000BB 00001111  0
00000001111100001011000100010011     SLTIU 00001    00000    00010   1    0    1   0000001F 000000AA 00000000  000000AA 000000BB 00001111  0
00000001111100001100000100010011     XORI- 00001    00000    00010   1    0    1   0000001F 000000AA 00000000  000000AA 000000BB 00001111  0
00000001111100001110000100010011     ORI-- 00001    00000    00010   1    0    1   0000001F 000000AA 00000000  000000AA 000000BB 00001111  0
00000001111100001111000100010011     ANDI- 00001    00000    00010   1    0    1   0000001F 000000AA 00000000  000000AA 000000BB 00001111  0
00000000000100001001000100010011     SLLI- 00001    00000    00010   1    0    1   00000001 000000AA 00000000  000000AA 000000BB 00001111  0
00000000000100001101000100010011     SRLI- 00001    00000    00010   1    0    1   00000001 000000AA 00000000  000000AA 000000BB 00001111  0
01000000000100001101000100010011     SRAI- 00001    00000    00010   1    0    1   00000001 000000AA 00000000  000000AA 000000BB 00001111  0
00000000001000001000000110110011     ADDr- 00001    00010    00011   1    1    1   000000BB 000000AA 00000000  000000AA 000000BB 00001111  0
01000000001000001000000110110011     SUBr- 00001    00010    00011   1    1    1   000000BB 000000AA 00000000  000000AA 000000BB 00001111  0
00000000001000001001000110110011     SLLr- 00001    00010    00011   1    1    1   000000BB 000000AA 00000000  000000AA 000000BB 00001111  0
00000000001000001010000110110011     SLTr- 00001    00010    00011   1    1    1   000000BB 000000AA 00000000  000000AA 000000BB 00001111  0
00000000001000001011000110110011     SLTUr 00001    00010    00011   1    1    1   000000BB 000000AA 00000000  000000AA 000000BB 00001111  0
00000000001000001100000110110011     XORr- 00001    00010    00011   1    1    1   000000BB 000000AA 00000000  000000AA 000000BB 00001111  0
00000000001000001101000110110011     SRLr- 00001    00010    00011   1    1    1   000000BB 000000AA 00000000  000000AA 000000BB 00001111  0
01000000001000001101000110110011     SRAr- 00001    00010    00011   1    1    1   000000BB 000000AA 00000000  000000AA 000000BB 00001111  0
00000000001000001110000110110011     ORr-- 00001    00010    00011   1    1    1   000000BB 000000AA 00000000  000000AA 000000BB 00001111  0
00000000001000001111000110110011     ANDr- 00001    00010    00011   1    1    1   000000BB 000000AA 00000000  000000AA 000000BB 00001111  0
